:020000041A00E0
:1000000000800010411F001AF501001AFD01001ABE
:100010000502001A0D02001A1502001A0000000065
:100020000000000000000000000000001D02001A97
:100030002502001A0000000000000000B903001AA9
:100040002D02001A2D02001A2D02001A00000000D5
:100050002D02001A2D02001A2D02001A2D02001A7C
:100060002D02001A2D02001A2D02001A2D02001A6C
:100070002D02001A2D02001A2D02001A2D02001A5C
:100080002D02001A2D02001A2D02001A2D02001A4C
:100090002D02001A2D02001A2D02001A2D02001A3C
:1000A0002D02001A2D02001A2D02001A2D02001A2C
:1000B0002D02001A2D02001A2D02001A2D02001A1C
:1000C0002D02001A2D02001A2D02001A2D02001A0C
:1000D0002D02001A2D02001A2D02001A2D02001AFC
:1000E0002D02001A2D02001A2D02001A2D02001AEC
:1000F000000000002D02001A2D02001A2D02001A25
:10010000000000002D02001A2D02001A2D02001A14
:100110002D02001AA428001A000000108800000018
:10012000A428001A0000081000000000A428001AEB
:100130000000002000000000A428001A0080002019
:1001400000000000A428001A00C0002000000000E9
:1001500088000010B400000000000810000000003B
:1001600000000020000000000080002000000000CF
:1001700000C000200000000080B489B000AFF8602B
:10018000B9607A60BB68FB61FB68BB6100237B617F
:100190000AE0FB691A1DFA61BA69111DB96112689A
:1001A0001A607B6904337B617A697B689A42F0D379
:1001B0002437BD465DF8047B704700BF80B485B02E
:1001C00000AF786039607B68FB600023BB6007E0AC
:1001D000FB681A1DFA6000221A60BB680433BB601A
:1001E000BA683B689A42F3D31437BD465DF8047B86
:1001F000704700BF80B400AFFEE700BF80B400AF1F
:10020000FEE700BF80B400AFFEE700BF80B400AFE0
:10021000FEE700BF80B400AFFEE700BF80B400AFD0
:10022000FEE700BF80B400AFFEE700BF80B400AFC0
:10023000FEE700BFFFFFFFFFFFFFFFFFFFFFFFFF26
:10024000FFFFFFFFFFFFFFFFFFFFFFFFFFFFFFFFBE
:10025000FFFFFFFFFFFFFFFFFFFFFFFFFFFFFFFFAE
:10026000FFFFFFFFFFFFFFFFFFFFFFFFFFFFFFFF9E
:10027000FFFFFFFFFFFFFFFFFFFFFFFFFFFFFFFF8E
:10028000FFFFFFFFFFFFFFFFFFFFFFFFFFFFFFFF7E
:10029000FFFFFFFFFFFFFFFFFFFFFFFFFFFFFFFF6E
:1002A000FFFFFFFFFFFFFFFFFFFFFFFFFFFFFFFF5E
:1002B000FFFFFFFFFFFFFFFFFFFFFFFFFFFFFFFF4E
:1002C000FFFFFFFFFFFFFFFFFFFFFFFFFFFFFFFF3E
:1002D000FFFFFFFFFFFFFFFFFFFFFFFFFFFFFFFF2E
:1002E000FFFFFFFFFFFFFFFFFFFFFFFFFFFFFFFF1E
:1002F000FFFFFFFFFFFFFFFFFFFFFFFFFFFFFFFF0E
:1003000080B483B000AF03463960FB7197F90730C2
:10031000002B0BDA0D49FB7903F00F03043B3A681D
:10032000D2B25201D2B20B441A7609E0084997F9C9
:1003300007303A68D2B25201D2B20B4483F800239C
:100340000C37BD465DF8047B704700BF00ED00E050
:1003500000E100E080B582B000AF78607B68013BCF
:10036000B3F1807F01D301230FE00A4B7A68013A91
:100370005A604FF0FF300721FFF7C2FF054B002204
:100380009A60044B07221A60002318460837BD46BE
:1003900080BD00BF10E000E080B500AF01F06AF959
:1003A00001F03CF900F064FD0120002101F0C8F8E3
:1003B00000F0E8FB80BD00BF80B400AF254B1B8878
:1003C0005A1C91B2234A1180032B05D1224B0122E2
:1003D0001A70204B00221A80204B1B885A1C91B2A5
:1003E0001E4A11801E4A1288934205D31D4B0122DA
:1003F0001A701A4B00221A801B4B1B885A1C91B290
:10040000194A1180022B05D1184B01221A70164B84
:1004100000221A80164B1B885A1C91B2144A118074
:10042000652B05D1134B01221A70114B00221A8043
:10043000114B1B885A1C91B20F4A1180012B05D118
:100440000E4B01221A700C4B00221A80BD465DF83B
:10045000047B70479E00001099000010A00000105F
:10046000040000109A000010A20000109B00001071
:10047000A40000109C000010A60000109D000010B9
:1004800080B500AFFFF788FF1D48FFF763FF1D4BE6
:10049000002283F880201C4800F036FD1B4B1B789F
:1004A000002B04D000F03CF8184B00221A70184BB7
:1004B0001B78002B06D000F06DFA00F08DFA144B7B
:1004C00000221A70134B1B78002B04D000F0CAF8DE
:1004D000104B00221A70104B1B78002B04D000F038
:1004E000ADFA0D4B00221A700C4B1B78002B05D077
:1004F00000F0C4FA094B00221A70CFE7CEE700BF24
:10050000C0201F00B4000010E424001A990000105D
:100510009B0000109A0000109C0000109D0000102D
:100520002DE9F04383B000AF464800F019FD0346C3
:10053000002B00F082806B461E46424B93F88030C1
:10054000591C4B1E7B600B461A464FF000034FEAC6
:10055000C30949EA52794FEAC2080B461A464FF0DE
:100560000003DD0045EA5275D4000B460733DB0873
:10057000DB00ADEB030D6B4600333B603B6831485D
:10058000194600F01FFD304B1B78002B02D0022BC8
:100590001FD04DE03B6818462C4900F037FB03465E
:1005A000002B06D0284B01221A70274B00229A708C
:1005B0000EE03B681846264900F028FB0346002B56
:1005C00006D0214B02221A701F4B00225A702FE0D6
:1005D0002EE01D4B5B78022B10D0032B1AD0012B81
:1005E00000D024E03B68184600F03EFB03461A4664
:1005F000184B1A60184B01221A7018E03B68184615
:1006000000F032FB0346DAB2144B1A70124B01228F
:100610001A700CE03B681846114900F0F7FA0346DF
:10062000002B03D00C4B01221A70FFE700BF00BF64
:10063000044B002283F88020B5460C37BD46BDE848
:10064000F08300BFB4000010A8000010FC24001AC2
:100650000825001A000000109700001096000010F6
:100660001025001A80B590B000AFAB4B1B78012B62
:1006700008D0022B00F0BE80002B00D086E100F0F5
:1006800025FA83E1A44B9B78042B00F2B18001A2F0
:1006900052F823F0A906001AC906001A1B07001A0F
:1006A0007307001ACD07001A9C4800F02DFC9C48E7
:1006B00000F02AFC984B01229A709A4B00221A7083
:1006C000994B00221A7094E0984800F009FC984B6E
:1006D0001B8807F134021046194600F005FB07F1AC
:1006E0003403184600F010FC8E4B1B78DBB21A4620
:1006F0000132D1B28B4A11705BB20A2B0CD18D48FA
:1007000000F002FC844B02229A70864B00221A7081
:10071000854B01221A706CE06BE0874800F0E0FB2B
:10072000864B1B8807F128021046194600F0DCFAB8
:1007300007F12803184600F0E7FB7A4B1B78DBB281
:100740001A460132D1B2774A11705BB20A2B0FD12F
:100750007B4800F0D9FB704B03229A70794B012241
:100760001A60704B00221A706F4B00221A7040E022
:100770003FE0754800F0B4FB724B1B689BB207F179
:100780001C021046194600F0AFFA07F11C03184688
:1007900000F0BAFB634B1B78DBB21A460132D1B2D0
:1007A000604A11705BB20A2B0FD1684800F0ACFBB5
:1007B000594B04229A705B4B00221A70644B002242
:1007C0001A60644800F0A0FB13E012E0604B1B6865
:1007D000042B0CD9504B00221A704F4B00229A70F8
:1007E0005D4800F091FB5D4800F08EFB01E000E009
:1007F00000BFCBE0484B5B78042B00F2C58001A220
:1008000052F823F01908001A3908001A7B08001A58
:10081000C108001AEB08001A514800F075FB514856
:1008200000F05EFB3C4B01225A704F4B00221A70C5
:100830004E4B09221A80A8E04B4B1B785BB2012B70
:100840001AD1354B02225A70474B00221A70484881
:1008500000F046FB474B1B689BB207F110021046A5
:10086000194600F041FA07F11003184600F04CFB5E
:10087000414800F049FB88E087E03B4B1B785BB2C6
:10088000012B1CD1244B03225A70374B00221A70C3
:100890002C4B00221A60394800F022FB224B1B78B7
:1008A0005BB29BB23A1D1046194600F01DFA3B1D83
:1008B000184600F029FB324800F026FB65E064E0B2
:1008C00000F004F9284B1B785BB2012B0CD1124BC2
:1008D00000221A70104B00225A702A4800F014FBB4
:1008E000224B5A221A8050E04FE000F0EFF8184BEC
:1008F0001B68042B0FD9084B00221A70064B0022EC
:100900005A70154800F000FB1E4800F0FDFA174B26
:100910005A221A8039E038E0A80000101825001A81
:100920004825001A95000010960000106825001A4E
:10093000880000107C25001A9C25001A8A000010EF
:10094000B025001A8C000010D025001AE425001AEA
:10095000900000100426001A1C26001A3426001AE3
:100960006826001A9426001A970000100400001050
:10097000AC26001A00000010C026001AD026001A6B
:10098000DC26001AEC26001A00BF00BF4037BD4627
:1009900080BD00BF80B500AF0C4B1B78002B0AD187
:1009A0000A4B1B78DBB2184600F0FEF803461A46E5
:1009B000074B1A8009E0054B1B78DBB2184600F0A4
:1009C000F3F803461A46034B1A8080BD96000010C8
:1009D000880000108A00001080B400AF114B1B7813
:1009E000022B00D01AE00F4B5B78032B00D014E0F1
:1009F0000D4B1B78002B02D10C4B1B8801E00C4BDC
:100A00001B880C4A1268934206D30B4B00221A60D3
:100A1000044B04225A70FFE700BF00BFBD465DF8DB
:100A2000047B7047A800001096000010880000109A
:100A30008A000010000000109000001080B500AF88
:100A40000C4B1B68042B0CD80120012100F078FD11
:100A5000084B1B685A1C074B1A60074B01221A707F
:100A600006E00120002100F06BFD034B00221A700C
:100A700080BD00BF900000109800001080B582B0CB
:100A800000AF002000F0AAFD78607B68012B0CD13C
:100A90000C4B1B78002B08D10B4B1B685A1C0A4BC4
:100AA0001A60084B01221A7009E07B68002B06D1FE
:100AB000044B1B78012B02D1024B00221A7008371D
:100AC000BD4680BD940000108C00001080B586B03B
:100AD00000AF204800F004FA1F4B1B78002B01D117
:100AE0001E4B00E01E4B184600F0FAF91A4B1B781B
:100AF000002B02D11B4B1B8801E01B4B1B8807F10D
:100B00000C021046194600F0EFF807F10C031846E6
:100B100000F0FAF9154800F0E3F9154B1B689BB299
:100B20003A461046194600F0DFF83B46184600F0FA
:100B3000EBF9104800F0D4F90F4B1B785BB2012B96
:100B400001D10E4B00E00E4B184600F0DDF91837CE
:100B5000BD4680BD1827001A960000102427001AF1
:100B60002827001A880000108A0000102C27001A7D
:100B70008C0000103C27001A980000105427001A1F
:100B80006027001A80B582B000AF3B460548194681
:100B900000F0D0FA0348002100F0ACFB0837BD4656
:100BA00080BD00BF00300E4080B584B000AF03466A
:100BB000FB710023FB81FB7913481946012200F0E9
:100BC0006FFB11480121002200F044FB00BFFB79BC
:100BD0000D481946002200F001FB0346012BF6D117
:100BE000FA7907F10E03084811461A4600F0E4FAB4
:100BF000FB7905481946002200F052FBFB89184694
:100C00001037BD4680BD00BF00300E4080B483B0B9
:100C100000AF786039600DE07B681B78002B11D045
:100C20003B681B78002B0DD07B6801337B603B68F1
:100C300001333B607B681A783B681B7852B25BB229
:100C40009A42E9D07B681B78002B05D13B681B7862
:100C5000002B01D1012300E0002318460C37BD46CC
:100C60005DF8047B704700BF80B487B000AF786048
:100C70007B681B785BB22D2B02D14FF0FF333B61B9
:100C80003B69B3F1FF3F02D10123FB6001E0002388
:100C9000FB600023BB60FB687B6110E0BA68134611
:100CA0009B0013445B001A467B6979680B441B78F0
:100CB0005BB21344303BBB607B6901337B617B6972
:100CC0007A6813441B78002BE8D13B69B3F1FF3FEE
:100CD00002D1BB685B42BB60BB6818461C37BD468F
:100CE0005DF8047B704700BF80B485B000AF7860CA
:100CF0000B467B800023BB817B887B8108E0BB891E
:100D00000133BB817A89214BA3FB0213DB087B8172
:100D10007B89002BF3D1BB89002B05D17B68302266
:100D20001A70BB890133BB810023FB811FE07A88E5
:100D3000164BA3FB0213D9080B469B000B445B0028
:100D4000D31A3B817A88114BA3FB0213DB087B800B
:100D5000BA89FB89DB4313447A6813443A89D2B2D7
:100D60003032D2B2D2B21A70FB890133FB81FA89D8
:100D7000BB899A42DBD3BB897A68134400221A707C
:100D80001437BD465DF8047B704700BFCDCCCCCC9A
:100D900080B483B000AF13460246FA710A46BA71B6
:100DA000BB80064BF879BA79B9884001024443F810
:100DB00022100C37BD465DF8047B70470060084088
:100DC00080B582B000AFF871B971BA80FB70FB7862
:100DD0009AB2BB8813439BB2F979BA790846114697
:100DE0001A46FFF7D5FF0837BD4680BD80B483B0F3
:100DF00000AF78607B680122DA650C37BD465DF88C
:100E0000047B704780B483B000AF78600B46FB7002
:100E1000FA787B681A600C37BD465DF8047B704732
:100E200080B483B000AF78607B681B68DBB2184683
:100E30000C37BD465DF8047B704700BF80B483B0BB
:100E400000AF786039607B683A68DA600C37BD467D
:100E50005DF8047B704700BF80B483B000AF78605A
:100E60007B685B6918460C37BD465DF8047B7047AC
:100E700080B500AF0720012118220623FFF7A0FF4D
:100E800007200221D0220623FFF79AFF074801F02E
:100E900089F906484FF4E13101F0C2F90348032112
:100EA000FFF7CCFF0148FFF7A1FF80BD00100C4009
:100EB00080B582B000AF0346FB7100BF0748FFF763
:100EC000CBFF034603F02003002BF7D0FB79034848
:100ED0001946FFF797FF0837BD4680BD00100C404C
:100EE00080B582B000AF786007E07B685A1C7A60FA
:100EF0001B785BB21846FFF7DBFF7B681B78002B83
:100F0000F3D10837BD4680BD80B582B000AF7860B0
:100F10007868FFF7E5FF0348FFF7E2FF0837BD46B3
:100F200080BD00BF6C27001A80B582B000AF4FF6BD
:100F3000FF73FB800948FFF78FFF034603F00103AF
:100F4000002B04D00548FFF76BFF0346FB80FB88AE
:100F50001BB218460837BD4680BD00BF00100C40CC
:100F600090B585B000AF78600023FB7314E07B6818
:100F700093F880301A467B6833F812301BB20D2B81
:100F800002D10123FB7318E07B6893F880300133B2
:100F9000DAB27B6883F880207B6893F880301C4647
:100FA000FFF7C2FF03461A467B6823F814207B68CC
:100FB00033F814301BB2002BD9DAFB7B18461437F8
:100FC000BD4690BD80B485B000AF78603960002325
:100FD000FB8107E0FB893A68134400221A70FB8901
:100FE0000133FB81FA897B6893F8803001339A42A0
:100FF000F0DB0023FB810BE0FB893A681344F9899D
:101000007A6832F81120D2B21A70FB890133FB8161
:101010007B6893F88030FA899A42EDD31437BD4645
:101020005DF8047B704700BF80B400AF0B23184607
:10103000BD465DF8047B704780B485B000AF786032
:101040007A68074B9A4202D10423FB8101E0032313
:10105000FB81FB8918461437BD465DF8047B704759
:1010600000400E4080B588B000AFF8607A600A4654
:10107000FA72BB72F868FFF7DFFF0346184600F00C
:101080001BFFB861FB7A002B05D0BB7A7A6802FBA4
:1010900003F3FB6106E0FFF7C7FF03467A6802FB34
:1010A00003F3FB61BB695A00FB691A44FB695B00EF
:1010B000B2FBF3F3DBB2013BFB75FB7D1846203737
:1010C000BD4680BD80B485B000AF78600B46FB7034
:1010D0007B681B6823F0E063FB60FB781A06FB6803
:1010E0001A437B681A601437BD465DF8047B70476D
:1010F00080B487B000AFF8600B467A60FB72FA7A72
:10110000FB68043253F822307B617B69002B01DBE2
:10111000002308E07B699B099BB2C3F309039AB2E1
:101120007B681A80012318461C37BD465DF8047B96
:10113000704700BF80B586B000AF7860396000238B
:101140007B617868FFF778FF03461846012101228A
:10115000012300F073FE7B680022DA607B6943F4B0
:1011600000137B613B68134A1A603B6800221A71C6
:101170000B233B613B6800225A713B681A683B694C
:10118000DBB278680021FFF76DFF0346FB73FB7B42
:101190001B027A6913437B613B681B7903F00703E9
:1011A0005B047A6913437B617B687A691A6018373C
:1011B000BD4680BD801A060080B584B000AFF860DF
:1011C0000B467A60FB72FB7AF86819467A68FFF77B
:1011D0008FFF034618461037BD4680BD80B485B0EA
:1011E00000AFF8600B467A60FB727B68012B13D06E
:1011F000012B04D3022B1FD000BF002324E0FB6887
:101200001A6BFB7A22FA03F303F00103002B0CBFE5
:1012100000230123DBB217E0FB7A0833FB72FB6883
:101220001A6BFB7A22FA03F303F00103002B0CBFC5
:1012300000230123DBB207E0FB681B6B1B0C002BB8
:101240000CBF00230123DBB218461437BD465DF8FE
:10125000047B704780B582B000AF786013460A46C1
:10126000FA70BB70FB78012B12D0FB78002B0FD0EB
:10127000BB78002B06D07B681B6843F000627B685C
:101280001A6005E07B681B6823F000627B681A60C7
:10129000FB7878681946FFF715FF0837BD4680BD13
:1012A00080B483B000AF786013460A46FA70BB7012
:1012B000BB78012B09D17B681A68FB78012101FA00
:1012C00003F31A437B681A600FE07B681B6823F006
:1012D000E0627B681A607B681A68FB78012101FA7A
:1012E00003F3DB431A407B681A600C37BD465DF898
:1012F000047B704780B582B000AF78600B46FB700E
:1013000078680021FFF7DEFEFB78002B06D17B68B2
:101310001B6823F480327B681A6005E07B681B68D9
:1013200043F480327B681A600837BD4680BD00BF39
:1013300080B483B000AF13460246FA710A46BA7110
:10134000BB80064BF879BA79B9884001024443F86A
:1013500022100C37BD465DF8047B704700600840E2
:1013600080B582B000AFF871B971BA80FB70FB78BC
:101370009AB2BB8813439BB2F979BA7908461146F1
:101380001A46FFF7D5FF0837BD4680BD80B483B04D
:1013900000AF7860064B064AD2F82C2142F00402D6
:1013A000C3F82C210C37BD465DF8047B704700BFA5
:1013B0000030044080B483B000AF7860F970BA7038
:1013C0007B70F878BB787A787968400103440B44E5
:1013D0001A700C37BD465DF8047B704780B485B049
:1013E00000AFF860B9601346FB71FB79FA68B96821
:1013F00049010B4413441B78DBB2002B0CBF0023C4
:101400000123DBB218461437BD465DF8047B7047F4
:1014100080B483B000AF786013460A46FA70BB70A0
:10142000FA78F9787B6801F5006153F82110BB78F0
:10143000012000FA03F319437B6802F5006243F8C8
:1014400022100C37BD465DF8047B704780B485B030
:1014500000AFF8600B467A60FB72FA7AFB6802F51F
:101460000A62796843F822101437BD465DF8047BA0
:10147000704700BF80B500AF022000210022042386
:10148000FFF76EFF0220012100220423FFF768FF0F
:101490000220022100220423FFF762FF02200A211A
:1014A00000220023FFF75CFF02200B210022002313
:1014B000FFF756FF02200C2100220023FFF750FF08
:1014C0001E4805210722012300F0A6FD1B4800212C
:1014D0004FF48042012300F09FFD184801214FF492
:1014E000C052012300F098FD144805210722FFF7A0
:1014F000ADFF124800214FF48042FFF7A7FF0F48CD
:1015000001214FF4C052FFF7A1FF0020002100F09D
:1015100017F80120002100F013F80220002100F04C
:101520000FF80320002100F00BF80420002100F048
:1015300007F80520002100F003F880BD00400F40AF
:1015400080B582B000AF03463960FB71FA790B4B6E
:1015500053F83230D9B2FB79084ADB0013445B6898
:10156000DAB23B68002B0CBF00230123DBB2044836
:10157000FFF720FF0837BD4680BD00BF48000010C0
:1015800000400F4080B500AF01200021C0220023A1
:10159000FFF7E6FE01200121C0220023FFF7E0FE55
:1015A00001200221C0220023FFF7DAFE01200621DC
:1015B000C0220023FFF7D4FE074800214FF44472F5
:1015C000002300F029FD044801214FF4007200239C
:1015D00000F022FD80BD00BF00400F4080B582B00A
:1015E00000AF78600B4B7A6853F832301A460949DD
:1015F0007B68DB000B445B68DBB2074811461A4688
:10160000FFF7ECFE034683F00103DBB21846083710
:10161000BD4680BD0800001000400F4080B500AFFF
:10162000124800F0EFFC022006214422FFF780FE62
:1016300002200521D222FFF77BFE01200721442250
:10164000FFF776FE094805210622FFF7E1FE07486D
:10165000052106220123FFF7ADFEFFF70BFFFFF781
:1016600091FF0348FFF792FE80BD00BF00400F408E
:101670000000014080B500AF692000F01DFC02466B
:10168000014B1A6080BD00BF3801001080B487B0E4
:1016900000AFF860B9607A603B60BB68FA6802FB33
:1016A00003F37B617A697B689A4207D37A69084BB6
:1016B0009A4203D87A693B689A4201D900237B6138
:1016C0007B6918461C37BD465DF8047B704700BF38
:1016D00000CB280C80B584B000AF02460B46FA71EF
:1016E000BB71BB79184600F04FFA0346FB73BB7918
:1016F000184600F069FAB860FB7B184600F080FAE3
:101700000246BB680133B2FBF3F318461037BD46FF
:1017100080BD00BF80B485B000AF0346FB801C23B2
:10172000FB730023BB6022E01B49BA6813465B00D1
:1017300013445B000B441B88FA889A4214D3164961
:10174000BA6813465B0013445B000B445B88FA885D
:101750009A4209D81049BA6813465B0013445B00EB
:101760000B441B79FB7302E0BB680133BB60FB7B5E
:101770001C2B0AD10849BA6813465B0013445B006E
:101780000B441B79FA7B9A42CED1FB7B1846143767
:10179000BD465DF8047B70477827001A80B483B09B
:1017A00000AF4FF47A733B60144B9B697B607B689E
:1017B00023F002037B60114B9A697B689A4202D046
:1017C0000E4B7A689A617B6823F001037B600C4BB7
:1017D0001A680C4B9A4203D97B6843F004037B6080
:1017E000064B7A689A6100BF3B685A1E3A60002B2C
:1017F000FAD10C37BD465DF8047B70470000054008
:101800007427001AFF2C310180B58AB000AFB9608F
:101810007A603B600346FB73FB7B184600F0F0F9EF
:10182000F8617B68B3F1FF3F51D07A68FB69B2FB86
:10183000F3F37B62F869796ABA683B68FFF726FFC1
:10184000B8617B6A01337B62F869796ABA683B6880
:10185000FFF71CFF7861BB69002B0CD07B69002B64
:1018600009D17B6A013B7B62FB7B1846796A00F0F9
:101870005FF8034658E0BB69002B09D17B69002B58
:1018800006D0FB7B1846796A00F052F803464BE01D
:10189000BB69002B1BD07B69002B18D07A68BB6911
:1018A000D21A79697B68CB1A9A4209D97B6A013BC3
:1018B0007B62FB7B1846796A00F03AF8034633E016
:1018C000FB7B1846796A00F033F803462CE0BA68CF
:1018D000FB69B2FBF3F37B623A68FB69B2FBF3F39B
:1018E0003B6100233B62F869796ABA683B68FFF79D
:1018F000CDFEB861BB69002B01D07B6A3B627A6A7E
:101900003B699A4204D300BF3B6A002B0BD003E033
:101910007B6A01337B62E6E7FB7B1846396A00F09D
:1019200007F8034600E0002318462837BD4680BD6F
:1019300080B58AB000AF03463960FB71FA23FB60C3
:10194000FB79184600F05CF9B86100237B61002345
:101950003B6100237B6201233B622F4B5B6CFB618D
:10196000BB693A6802FB03F3BB613B68013B7B61E7
:10197000FB6923F0F853FB61FB791B06FA691343FB
:10198000FB61FA69254B1340FB61BA69244B9A420B
:101990001CD805E07B6A01337B623B6A5B003B62DB
:1019A0003B6ABA6902FB03F35A001D4B9A42F1D914
:1019B0007B691A043B691B031A437B6A1B021A43A7
:1019C000FB69134343F04003FB6115E0BA69154B13
:1019D0009A420DD87B691A043B691B031A437B6A40
:1019E0001B021A43FB69134343F0C003FB6103E08E
:1019F00000F07AF800230BE0074BFA6922F00102AD
:101A00005A6400BFFB685A1EFA60002BFAD1BB690A
:101A100018462837BD4680BD000005403DCC00FF7C
:101A2000FF5E4C09FFCF121380B58CB000AF2C4B7A
:101A30005B6CFB62FB6A1B0EDBB203F00F03DBB2D5
:101A4000184600F0DDF8B862264A3B1D10681860A1
:101A5000234B1B6C03F00103002B01D100233BE05F
:101A6000FB6A1B0CDBB27B62FB6A1B0B03F00303FC
:101A70003B62FB6A1B0A03F00303FB61FB6ADB09A1
:101A800003F00103BB61FB6A9B0903F001037B6167
:101A90007B6A01333B613B6A0133FB603A1DFB69A2
:101AA00013441B78BB60BB69002B02D17B69002B00
:101AB00007D0BA6AFB68B2FBF3F33A6902FB03F39F
:101AC0000AE0BB685B003A69B2FBF3F3B96AFA68F3
:101AD000B1FBF2F202FB03F318463037BD4680BD7E
:101AE00000000540E427001A80B400AF044B044A0C
:101AF000526C42F001025A64BD465DF8047B7047A7
:101B00000000054080B485B000AF0B463A60024645
:101B1000FA71BB711A4BFA79123253F82230FB601A
:101B20003B68013B3B60BB79112B1CD0FB79154A0C
:101B3000D35C5BB29B0043F0F85343F00103DB43FB
:101B4000FA681340FB600E4BFA79B979090608462A
:101B5000F968084339688900014341F40061123291
:101B600043F8221007E0064BFA79F96841F00101C9
:101B7000123243F822101437BD465DF8047B7047DB
:101B800000000540E827001A80B485B000AF034686
:101B9000FB710C4BFA79123253F82230FB60FB6870
:101BA00003F00103002B01D0112305E0FB681B0E9D
:101BB000DBB203F01F03DBB218461437BD465DF8F5
:101BC000047B70470000054080B483B000AF03463B
:101BD000FB71094BFA79123253F822309B08DAB2C2
:101BE000FB790649CB5CDBB21340DBB218460C37FD
:101BF000BD465DF8047B704700000540E827001AE9
:101C000080B584B000AF0346FB710023FB60FB7915
:101C1000112B00F2808001A252F823F0651C001AFB
:101C20006D1C001A731C001A891C001AA31C001AD0
:101C3000171D001AAB1C001AB31C001ABB1C001A9B
:101C4000C31C001A171D001A171D001ACB1C001AFE
:101C5000D91C001AE71C001AF51C001A031D001AF3
:101C6000111D001A4FF40043FB6055E02D4BFB6043
:101C700052E02D4BD3F82C3103F00703042B02D094
:101C80002A4BFB6048E047E0274BD3F82C3103F0A8
:101C90000703042B02D0254BFB603DE0244BFB6087
:101CA0003AE0244B1B68FB6036E0234B1B68FB606B
:101CB00032E0224B1B68FB602EE0204B5B68FB6030
:101CC0002AE0FFF7B1FEF86026E0FB791846002114
:101CD000FFF700FDF8601FE0FB7918460121FFF7D0
:101CE000F9FCF86018E0FB7918460221FFF7F2FCD6
:101CF000F86011E0FB7918460321FFF7EBFCF86070
:101D00000AE0FB7918460421FFF7E4FCF86003E0E1
:101D10000023FB6000E000BFFB6818461037BD469B
:101D200080BD00BF001BB7000030044040787D013B
:101D300080F0FA027027001A7427001AAC00001015
:101D400080B582B000AF0346FB71FB79184600F006
:101D50004FF803461846FFF753FF03461846083767
:101D6000BD4680BD80B485B000AFF871B9717A719D
:101D70003B711D4AFB7916339B0013445B68FB6083
:101D8000FB791B2B21D8BB79112B27D0FA68174B75
:101D90001340FB607B79002B03D0FB6843F40063A6
:101DA000FB603B79002B03D0FB6843F00103FB6031
:101DB000BB791B06FA681343FB600B4AFB791633A9
:101DC0009B001344FA685A6008E00749FB79FA68F7
:101DD00042F0010216339B000B445A601437BD4693
:101DE0005DF8047B704700BF00000540FEF7FFE090
:101DF00080B485B000AF0346FB71FB791B2B01D982
:101E0000112313E00C4AFB7916339B0013445B68E3
:101E1000FB60FB6803F00103002B01D0112305E0F8
:101E2000FB681B0EDBB203F01F03DBB2184614374E
:101E3000BD465DF8047B70470000054080B485B066
:101E400000AF3B600346FB800B467B7113463B7142
:101E50000123FB607B79002B03D0FB6843F0020376
:101E6000FB603B79002B03D0FB6843F00403FB606D
:101E70003B68022B03D1FB6843F02003FB60FB8827
:101E8000B3F5A17F08D30A4BFA88A2F5A1722032DC
:101E9000F96843F8321005E0064BFA882032F968F9
:101EA00043F832101437BD465DF8047B704700BF1D
:101EB000002005400010054080B586B000AF034605
:101EC000FB80FB88B3F5A17F08D31B4BFA88A2F5F2
:101ED000A172203253F832307B6105E0174BFA884B
:101EE000203253F832307B617B6903F00103002B11
:101EF0001BD0FB881846FFF70DFC0346FB72FB7AEC
:101F00001846FFF71DFFF8607B695B0903F00703C4
:101F1000002B02D101233B6101E002233B61FA68FF
:101F20003B69B2FBF3F3FB6001E00023FB60FB685D
:101F300018461837BD4680BD0020054000100540FA
:101F400080B588B000AF72B6274B7B617B69274AAA
:101F50001A607B690433264A1A60264B3B610023D2
:101F6000FB6109E0FB699B003A6913444FF0FF32C3
:101F70001A60FB690133FB61FB69072BF2D962B67A
:101F800000F078F81C4BBB6113E0BB691A1DBA6105
:101F90001B68FB60BB691A1DBA611B68BB60BB692B
:101FA0001A1DBA611B687B60F868B9687A68FEF729
:101FB000E3F8BA69114B9A42E7D30DE0BB691A1DE9
:101FC000BA611B68BB60BB691A1DBA611B687B6084
:101FD000B8687968FEF7F2F8BA69094B9A42EDD30E
:101FE000FEF74EFAFEE700BF003105400010DF109B
:101FF000FFF7DF0180E200E01401001A5001001A2F
:102000007801001A80B483B000AF78600C37BD4609
:102010005DF8047B704700BF80B485B000AFF86006
:102020007A600A46FA72BB72BB7A002B0ED0FA7A3B
:10203000F97AFB6801F5006153F821107B681943B8
:10204000FB6802F5006243F822100EE0FA7AF97A92
:10205000FB6801F5006153F821107B68DB431940F0
:10206000FB6802F5006243F822101437BD465DF8A4
:10207000047B704780B582B000AF064B7B60064A98
:102080007B681A6000F09AF900F090F90837BD46B5
:1020900080BD00BF08ED00E00000001A80B483B0EE
:1020A00000AF78607B680022DA650C37BD465DF8CA
:1020B000047B704780B483B000AF786039607B6880
:1020C0003A689A600C37BD465DF8047B704700BFE4
:1020D00080B483B000AF786039607B683A68DA60BA
:1020E0000C37BD465DF8047B704700BF80B483B0F9
:1020F00000AF78607B68DB6843F080027B68DA6061
:102100000C37BD465DF8047B704700BF80B483B0D8
:1021100000AF78607B68DB6823F080027B68DA6060
:102120000C37BD465DF8047B704700BF80B483B0B8
:1021300000AF786013460A46FA70BB70FA787B6885
:102140001A60BA787B685A600C37BD465DF8047B2C
:10215000704700BF80B485B000AF78607A680E4BDE
:102160009A4202D1A223FB810FE07A680B4B9A427C
:1021700002D1A123FB8108E07A68094B9A4202D17F
:102180008223FB8101E08123FB81FB891846143700
:10219000BD465DF8047B704700200C4000100C40E9
:1021A0000020084080B584B000AF78607868FFF701
:1021B000D1FF03461846012101220123FFF73EFE0D
:1021C00078680721FFF776FF7868FFF767FF7B687D
:1021D00000225A607B680022DA607B6800221A6263
:1021E0007B680022DA647B6800225A657B680022E3
:1021F0001A657A68094B9A4205D17B6800221A61F8
:102200007B689B69FB6078680321FFF761FF7B684F
:1022100010229A621037BD4680BD00BF00200840E2
:1022200080B586B000AF786039607868FFF792FFBC
:1022300003461846FFF740FE78613B681B017A6948
:10224000B2FBF3F33B613B691B0AFB60FB681B02BB
:102250003A69D31ABB607868FFF748FFBB68DAB207
:10226000FB68DBB2786811461A46FFF75FFF7868B3
:10227000FFF74CFF7A693B69B2FBF3F31846183756
:10228000BD4680BD80B483B000AF13460246FA71EC
:102290000A46BA71BB80064BF879BA79B988400111
:1022A000024443F822100C37BD465DF8047B7047AA
:1022B0000060084080B584B000AF786039600023CA
:1022C000FB6016E0FB689B007A6813441978FB6892
:1022D0009B007A6813445A78FB689B007868034433
:1022E0005B88084611461A46FFF7CCFFFB680133AE
:1022F000FB60FA683B689A42E4D31037BD4680BD64
:1023000080B500AF04481121FFF7D4FF0348062130
:10231000FFF7D0FF80BD00BF1828001A0028001A60
:1023200090B583B000AF06201D49012200F080F86F
:102330001C4B1C4A526822F00C025A60194B194A75
:10234000526842F003025A60042009210522FFF777
:10235000D9FB0520102101220023FFF703FD0023F4
:102360007B6017E0104B7A6813F822000E4A7B68F6
:102370009B00134459780C4A7B689B0013449A785D
:10238000094C7B689B002344DB78FFF7EBFC7B6800
:1023900001337B607B68032BE4D90C37BD4690BDCD
:1023A00000CB280C00300440F027001A80B500AFA5
:1023B000FFF7A6FFFFF7B4FF80BD00BF80B489B070
:1023C00000AF164BFB61164BBB61164B7B610023C4
:1023D000FB74BB691B68BB607B691B687B60BA6868
:1023E000114B9A4205D17A68104B9A4201D10123D0
:1023F00000E00023FB7497F91330002B09D0FB6930
:102400001B68FB60FB6843F47003FB60FA68FB69C0
:102410001A602437BD465DF8047B704788ED00E004
:1024200040EF00E044EF00E0210011101100001126
:1024300090B585B000AF396013460246FA71BB71A2
:10244000FB79062B01D1FFF7A9F9FB790420194686
:1024500001220023FFF786FC3A681E4B9A420CD9F2
:10246000FB7918461C491B4A1A4BFFF7CDF904208B
:10247000092101220023FFF775FC184B1B68FA792C
:10248000104619463A683B68FFF7BEF9BB79002B46
:102490001DD00023FB6017E0114BFA6813F82200EF
:1024A0000F4AFB689B00134459780D4AFB689B0058
:1024B00013449A780A4CFB689B002344DB78FFF7AF
:1024C00051FCFB680133FB60FB68112BE4D9143726
:1024D000BD4690BD80778E06001BB7007427001A9A
:1024E0005C28001A496E696369616E646F207072BE
:1024F0006F6772616D61202E2E2E000063616C6922
:1025000062726172000000006F706572617200009B
:10251000646574656E6572003D3D3D3D3D3D3D3DEC
:102520003D3D3D20496E696369612063616C69626C
:10253000726163696F6E203D3D3D3D3D3D3D3D3DDA
:102540003D3D3D3D3D0000002A2A2A2A2A2A2054EA
:1025500045535420546F727175652031202A2A2A00
:102560002A2A2A2A2A2A000056616C6F7220646582
:1025700020746F7271756520313A20002A2A2A2A48
:102580002A2A205445535420546F727175652032A5
:10259000202A2A2A2A2A2A2A2A2A000056616C6F0F
:1025A0007220646520746F7271756520323A200064
:1025B0002A2A2A2A2A2A205445535420454E434F7A
:1025C000444552202A2A2A2A2A2A2A2A2A00000096
:1025D00056616C6F7220646520456E636F6465722E
:1025E0003A2000002A2A2A2A2A2A20544553542015
:1025F00056616C76756C61202A2A2A2A2A2A2A2A90
:102600002A00000056616C76756C61206163746904
:1026100076616461202121210000000056616C7602
:10262000756C6120646573616374697661646120AF
:10263000212121003D3D3D3D3D3D3D3D3D3D3D2078
:1026400046696E206465206C612063616C6962720A
:102650006163696F6E203D3D3D3D3D3D3D3D3D3DEE
:102660003D3D3D3D000000003D3D3D3D3D3D3D3D8E
:102670003D3D3D20496E69636961206F70657261FF
:1026800072203D3D3D3D3D3D3D3D3D3D3D3D3D3D62
:1026900000000000496E677265736520746F727187
:1026A0007565206F7074696D6F3A2000546F727198
:1026B0007565206F7074696D6F203D2020000000EB
:1026C000496E6772657365206D6F646F3A20000014
:1026D0004D6F646F203D202000000000436F6E743A
:1026E000726F6C616E646F2E2E2E00003D3D3D3D7D
:1026F0003D3D3D3D3D3D3D2046696E206465206F7A
:102700007065726172203D3D3D3D3D3D3D3D3D3D2D
:102710003D3D3D3D0000000056616C6F722041441C
:1027200043200000313A2000323A200056616C6F9D
:102730007220456E636F6465723A20004573746160
:10274000646F206465206C612076616C76756C61C5
:102750003A20000041637469766164610000000002
:102760004465736163746976616461000A0D0000F9
:1027700000000000001BB700000005000A00200058
:10278000240009004000400005006000A60004008D
:10279000C000C3000200E000E000010000010001F1
:1027A0000300200120010600400140010C0042010D
:1027B00042011900620162011300820182011200CC
:1027C000A201A2011100C201C2011000E201E20156
:1027D0000F00020202020E00220222020D0023025A
:1027E00023021C0001020408030F0F0FFF0000006A
:1027F00008030100070301000B0E0100030F010194
:102800000303F3000304F3000305F3000306F300DE
:102810000307F3000308F300010FF3000000F200C8
:102820000110F7000001B6000113F0000112B3001F
:102830000114B3000111F3000200B700020B5800AD
:10284000020C58000300F2000600F4000702F20038
:102850000602F3000701F2000601F3000001010087
:10286000090901000A09010001070101020901002B
:10287000060901000C0901010D0901000E09010002
:102880000F090100100901001109010012090100DE
:102890001309010014110100191101001A1101009E
:0428A0001B11010007
:1028A400102700005A00000000000000040000008F
:1028B4000000000008000000000000000900000003
:1028C40001000000090000000000000000000000FA
:1028D40000000000000000000000000000000000F4
:1028E40000000000000000000500000000000000DF
:1028F40005000000010000000500000002000000C7
:10290400000000000E000000010000000B000000A9
:10291400010000000C0000000000000000000000A6
:082924000000000000000000AB
:040000051A001F417D
:00000001FF
